:2000A800E582900003F0E0FF900001E0FEC3EF9E402B900002E0FC7D008F027B00ECC39A05
:2000C800FCED9BFD8E02C3EA9CEB64808DF063F08095F050047582042275820322900002FB
:2000E800E0FCE4FDFBECC39FFCED9BFD7F00C3EE9CEF64808DF063F08095F05004758201B1
:200108002275820222AFF0AE83E582900005F0EEA3F0EFA3F0900004E0F519AE198E05758A
:20012800F008ED84FD900008F0BD010050069000087401F075F002EE84FE900008E0FD75F7
:20014800F00284F518900005E0F9A3E0FAA3E0FB89008A048B0788828C838FF0E4120DD98E
:200168000429F51AE43AF51B8B1CE519C39D851A82851B83851CF0120DD9740229F8E43A86
:20018800FC8B0788828C838FF0EE120DD9740329F8E43AFC8B0788828C838FF0E519120D52
:2001A800D9740429F51AE43AF51B8B1CEEC39DF51D851A82851B83851CF0120DD97405290A
:2001C800F8E43AFC8B0788828C838FF0EE120DD9740629F8E43AFC8B0788828C838FF0EE28
:2001E800120DD9740729F8E43AFC8B0788828C838FF0E519120DD9740829F8E43AFC8B07E0
:2002080088828C838FF0E51D120DD9740929F8E43AFC8B0788828C838FF0E4120DD9740A08
:2002280029F8E43AFC8B0788828C838FF0EE120DD9740B29F8E43AFC8B0788828C838FF087
:20024800EE120DD9740C29F8E43AFC8B0788828C838FF0E4120DD9740D29F8E43AFC8B07A1
:2002680088828C838FF0E4120DD9740E29F8E43AFC8B0788828C838FF0EE120DD9740F2989
:20028800F8E43AFC8B0788828C838FF0ED120DD9741029F8E43AFC8B0788828C838FF0E468
:2002A800120DD9741129F8E43AFC8B0788828C838FF0E4120DD9741229F8E43AFC8B07889D
:2002C800828C838FF0ED120DD9741329F8E43AFC8B0788828C838FF0EE120DD9741429F8A6
:2002E800E43AFC8B0788828C838FF0E4120DD9741529F8E43AFC8B0788828C838FF0EE12E8
:200308000DD9741629F8E43AFC8B0788828C838FF0ED120DD9741729F8E43AFC8B078882B9
:200328008C838FF0E519120DD9741829F8E43AFC8B0788828C838FF0E4120DD9741929F5B9
:200348001AE43AF51B8B1CEEC39518851A82851B83851CF0120DD9741A29F8E43AFC8B0720
:2003680088828C838FF0EE120DD9741B29F51AE43AF51B8B1CED2EF51DC39518851A828518
:200388001B83851CF0120DD9741C29F8E43AFC8B070E88828C838FF0EE120DD9741D29FC8F
:2003A800E43AFE8B078C828E838FF0E4120DD9741E29FCE43AFE8B07A81D08088C828E83B4
:2003C8008FF0E8120DD9741F29F9E43AFA89828A838BF0ED020DD9E58290000CF090000AF4
:2003E800E0FFBF01028003020464900009E0FEBE031390000CE0FD6008BD06028003BD0333
:200408000475820122BE022190000CE0FDBD040A90000BE0FCBC0102800BBD050C90000B67
:20042800E0FDBD020475820122BE040280030204CF90000CE0FEBE040A90000BE0FDBD0261
:20044800028015BE050280030204CF90000BE0FEBE030280030204CF75820122BF020280EF
:20046800030204CF900009E0FFBF011390000CE0FE6008BE06028003BE030475820122BF88
:20048800022190000CE0FEBE020A90000BE0FDBD0102800BBE010C90000BE0FEBE020475AD
:2004A800820122BF042190000CE0FFBF020A90000BE0FEBE0202800BBF010C90000BE0FF59
:2004C800BF03047582012275820022E582900010F090000FE0FFFE740F5E900EA393FE7481
:2004E800805F4EFF90000EE0FEFD75F00284FC75F008ED84FD900012F0BD01005006900057
:20050800127401F0900012E0FD75F00284FB900013E4F0ECC39D900014F0900015EDF0908E
:200528000016ECF0900017E4F0ECC39B900018F0EEC39D900019F090001AEDF0ED2CC39B7F
:2005480090001BF090001CEEF090001FE4F0900020F0900004EEF090002175F000C007C03C
:2005680006C005C00412010DD004D005D006D007BE1000E433FB900010E0F50A90000DE092
:20058800F9850A112EF5087509008C0B750C00900012E07A00250BF8EA350CFA740228F51D
:2005A8000BE43AF50CA8097A00C3E8950BEA6480850CF063F08095F0400302088B90004143
:2005C800E4F0900011F090001DF0900013E0FAC3E5099A4019900015E0FAC3E5099A500EC8
:2005E80090001D7401F090001FE509F08029900014E0FAC3E5099A401E900016E0FAC3E55C
:20060800099A501390001D7402F0900014E0FA90001FE509C39AF090001DE0FA90001FE03B
:20062800F50B85090D8A0EE50A2509F50F751000C3E5109E4003020837900011E02401F069
:20064800900041E025E0F090001EE4F0EA6078900017E0F8C3E51098401990001AE0F8C33B
:20066800E51098500E90001E7401F0900020E510F08054900018E0F8C3E51098402090004B
:200688001BE0F8C3E51098501590001E7402F0900018E0F8900020E510C398F080299000ED
:2006A80019E0F8C3E51098401E90001CE0F8C3E51098501390001E7403F0900019E0F89036
:2006C8000020E510C398F0900020E0F885101275130074F8251350030207E88513F005F096
:2006E800EF8002C313D5F0FB20E0030207E3C001E51375F004A42421F514740035F0F51545
:20070800851482851583E0F9C3E50D99D00150030207E3C001851482851583A3A3E0F9C387
:20072800E50D99D00140030207E3C001851482851583A3E0F9C3E51299D00150030207E34E
:20074800C001851482851583A3A3A3E0F9C3E51299D00140030207E3EB600A900041E0433A
:20076800E001F0807BE50E606890001EE0F514E0605FC001900001E8F0900002EDF0850B8B
:2007880082C007C006C005C004C003C002C0001200A8A982D000900009E9F090000AE50EC0
:2007A800F090000BE514F0851382C001C0001203DFE582D000D001D002D003D004D005D008
:2007C80006D007D0016014900041E043E001F0800F900041E043E001F0800505130206DA57
:2007E800900011E0F8B80842C004E92510F8900041E0FC900051E8F0900052ECF0850F8262
:20080800C007C006C005C004C003C002C001120B68D001D002D003D004D005D006D0079093
:200828000041E4F0900011F0D0040510020638900011E0FAE060477408C39AFA900041E05B
:200848008AF005F0800225E0D5F0FB900041F0E5112509FAE0F8900051E508F0900052E89B
:20086800F08A82C007C006C005C004C003C001120B68D001D003D004D005D006D00705094D
:07088800020592900000221E
:120EA3003F065B4F666D7D077F6F777C395E79714080D5
:0300000002004CAF
:200008000000E2FBEAF2802C0000E0FBEAF08024E6B50202EBF62200E2B50202EBF22200DE
:20002800E0B50202EBF02230F6E0A88220F5D3EAC6F582228B822230F6E6A88220F5D980EE
:01004800CFE8
:0300A5000200490D
:030049000209E1C8
:20088F00E582900046F0900043E0FFFE75F00284FD75F008EE842D2404F5169000487401F8
:2008AF00F0900049C4F07427A3F0900046E0900047F0900044E0FCA3E0FD900042E0FB7AAA
:2008CF0005EA7003020992C003900049E0F8A3E0F990005BE8F0E9A3F08C828D83C007C036
:2008EF0005C004C002C001C000120D4CAB82AE83900063740AF0E4A3F08B828E83120DF40B
:20090F00AB82D000D00190004BEBF090005B740AF0E4A3F088828983120D4CAB82AE83D0C5
:20092F0002D004D005D007900049EBF0EEA3F090004BE0F517D003E060069000487401F0D4
:20094F00900048E06039900047E0FE90000DEBF090000EEFF090000FE517F08E82C007C06B
:20096F0006C005C004C003C0021204D3D002D003D004D005D006D007900047E5162EF01A66
:20098F000208D0900047E0F5822275920075910190FEA874CFF075DE2F75BC8090000102E1
:2009AF000C94E58290004CF0E0540742BC43BCC0E5BC30E5FB53BCDF90004DE5BEF0E5BDAC
:2009CF005403FE7F00E07D004207ED42068F828E832275BA80900190120BDE120A54120BBD
:2009EF00231209997582001209B1AE82AF83900042E4F09000437420F0900044EEF0EFA3AB
:090A0F00F075820012088F80DBF3
:200A1800E58290004EF0758278120CF4758200120D2090004EE0F582120D20020CEBE582FE
:200A380090004FF0758278120CF4758240120D2090004FE0F582120D20020CEB9000641264
:200A58000C94758200120A18758210120A18758240120A18758281120A187582CC120A186A
:200A78007582A1120A187582C8120A187582A6120A187582A4120A187582A8120A18758235
:200A98003F120A187582D3120A18758200120A187582D5120A187582F0120A187582D912A5
:200AB8000A187582F1120A187582DA120A18758212120A187582DB120A18758240120A182D
:200AD800758220120A18758200120A1875828D120A18758214120A18758220120A1875824F
:200AF80000120A187582AF120A18900064020C94E582900050F0E0FFBF01067582AF020AAC
:200B180018EF70067582AE120A18227F008F0674B02EF582C007120A18758200120A1875CD
:200B38008210120A18758278120CF4758240120D20D0077E00758200C007C006120D20D0F8
:200B580006D0070EBE800040EC0FBF080040BE22E582900053F0E0FF24804009900051E06B
:200B7800FE24C05001227440C39E75F00884FE758278C007C006120CF4758200120D20D0F0
:200B98000674B02EF582120D20D007740F5FF582C007120D20D007EFC4540FFF4307108F24
:1C0BB80082120D20758278120CF4758240120D20900052E0F582120D20020CEBF8
:200BD40043BA3053B1F353B2F322AF83E582900054F0EFA3F043BA80120BD4900054E0F5AD
:200BF400F0A3E045F070099000547464F0E4A3F090FE01E0FE7F0090005B74012EF0E43F10
:200C1400A3F0905DC0120D4CAE82AF83900054E0FCA3E0FD90005BECF0EDA3F08E828F830A
:200C3400120D4CAE82E583C313CE13CEFFC3EE9404EF94005007900056E4F08011EE24FC9D
:200C5400FEEF34FFC313CE13CE900056EEF0900056E024C05006900056743FF090FE80740C
:200C7400C0F0900056E0543FFF90FE80E04FF090FE88E053E0FEF090FE81E053E07FF02261
:200C9400AF83E582900057F0EFA3F0900057E0FEA3E0FF7C007D00C3EC9EED9F50147AE86F
:200CB4007B031ABAFF011BEA4B70F70CBC00E80D80E5227FC890FE82E020E606DFF77582C3
:200CD400012290FE82E053E0BFF07582002290FE817401F0020CC790FE817406F0020CC75B
:200CF400E582900059F0E090FE86F090FE817409F0120CC7E5827003F5822290FE82E054A4
:200D140002B40100B39200E433F58222E58290005AF0E090FE86F090FE81740AF0120CC78C
:180D3400E5827003F5822290FE82E05402B40100B39201E433F5822243
:200D4C00AF83E58290005DF0EFA3F090005FE4F0A3F090005BE0FEA3E0FF7D1090005DE094
:200D6C00FBA3E0FC900061235401F0EB2BFBEC33FC90005DEBF0ECA3F090005FE0FBA3E0D4
:200D8C00FCEB2BFBEC33FC90005FEBF0ECA3F0900061E0600890005FE043E001F090005FCB
:200DAC00E0FBA3E0FCC3EB9EEC9F401390005FEBC39EF0EC9FA3F090005DE043E001F0DD9C
:0D0DCC009B90005DE0FEA3E08E82F5832287
:06007B00E478FFF6D8FD59
:200059007900E94400601B7A00900EB5786875A000E493F2A308B8000205A0D9F4DAF27523
:02007900A0FFE6
:1B0DD90020F71130F6138883A88220F509F6A8837583002280FEF280F5F02219
:200DF400AF83E582900065F0EFA3F0900067E4F0900065E0FEA3E0FF7D00900063E0FBA3D1
:200E1400E0FC2354017036EB2BFBEC33FC900063EBF0ECA3F0900063E0FBA3E0FCC3EE9BB2
:200E3400EF9C5011ECC313CB13CBFC900063EBF0ECA3F080080D900067EDF080BD90006761
:200E5400E0FF900065E0FDA3E0FE900063E0FBA3E0FCC3ED9BEE9C400B900065EDC39BF0AF
:200E7400EE9CA3F0900063E0FDA3E0C313CD13CDFE900063EDF0EEA3F08F061FEE70C390B7
:0B0E94000065E0FEA3E08E82F58322E3
:200081007800E84400600A790175A000E4F309D8FC7867E84400600C7901900001E4F0A315
:0400A100D8FCD9FAB4
:0D004C00758120120E9FE5826003020049BD
:040E9F007582002236
:00000001FF
